{
  "transactions": [
    {
      "hash": "0x59216fa3021e7a4a524af1152d15eb0c5176986721661a9469dce59f446e2994",
      "transactionType": "CALL",
      "contractName": "ABTDistributor",
      "contractAddress": "0xcd12d603ec87fb41a5f21ea2e1590470dbe9f9cb",
      "function": "setCampaignConfig(bool,uint256,uint256)",
      "arguments": [
        "true",
        "1",
        "1"
      ],
      "transaction": {
        "from": "0xdef8de1110a2038fa9ff863c3ec471847315fae8",
        "to": "0xcd12d603ec87fb41a5f21ea2e1590470dbe9f9cb",
        "gas": "0x19d03",
        "value": "0x0",
        "input": "0xa4ec70a3000000000000000000000000000000000000000000000000000000000000000100000000000000000000000000000000000000000000000000000000000000010000000000000000000000000000000000000000000000000000000000000001",
        "nonce": "0x13a",
        "chainId": "0xe708"
      },
      "additionalContracts": [],
      "isFixedGasLimit": false
    }
  ],
  "receipts": [
    {
      "status": "0x1",
      "cumulativeGasUsed": "0x4ce39",
      "logs": [
        {
          "address": "0xcd12d603ec87fb41a5f21ea2e1590470dbe9f9cb",
          "topics": [
            "0xfc3422863b447c79a65381723f3008cc546b463e8dbe5c7a21d06123c195fd65"
          ],
          "data": "0x00000000000000000000000000000000000000000000000000000000000000010000000000000000000000000000000000000000000000000de0b6b3a76400000000000000000000000000000000000000000000000000000de0b6b3a7640000",
          "blockHash": "0xb5bf040ab05a5ac5630b40fe983e8546697134886ea425ec6c007d1ee1e310f8",
          "blockNumber": "0x1912204",
          "blockTimestamp": "0x69301de8",
          "transactionHash": "0x59216fa3021e7a4a524af1152d15eb0c5176986721661a9469dce59f446e2994",
          "transactionIndex": "0x4",
          "logIndex": "0x3",
          "removed": false
        }
      ],
      "logsBloom": "0x00000000000000000000000000000000000000800000000000000000000000000000000000000000001000000000000000000000000000080000000000000000000000000000010000000000000000000000000000000000000000000000000000000000000000000000000000000000000000000000000000000000000000000000000000000000000000000000000000000000000800000000000000000000000000000000000000000000000000000000000000000000000000000000400000000000000000000000000000000000000000000000000000000000000000000000000000000000000000000000000000000000000000000000000000000000",
      "type": "0x2",
      "transactionHash": "0x59216fa3021e7a4a524af1152d15eb0c5176986721661a9469dce59f446e2994",
      "transactionIndex": "0x4",
      "blockHash": "0xb5bf040ab05a5ac5630b40fe983e8546697134886ea425ec6c007d1ee1e310f8",
      "blockNumber": "0x1912204",
      "gasUsed": "0x12b04",
      "effectiveGasPrice": "0x24abb20",
      "from": "0xdef8de1110a2038fa9ff863c3ec471847315fae8",
      "to": "0xcd12d603ec87fb41a5f21ea2e1590470dbe9f9cb",
      "contractAddress": null
    }
  ],
  "libraries": [],
  "pending": [],
  "returns": {},
  "timestamp": 1764761065138,
  "chain": 59144,
  "commit": "6c258c5"
}